{
  "_format": "hh-sol-artifact-1",
  "contractName": "PatientContract",
  "sourceName": "contracts/Patient.sol",
  "abi": [
    {
      "inputs": [
        {
          "internalType": "string",
          "name": "name",
          "type": "string"
        },
        {
          "internalType": "string",
          "name": "dob",
          "type": "string"
        },
        {
          "internalType": "string",
          "name": "rId",
          "type": "string"
        }
      ],
      "name": "createPatient",
      "outputs": [],
      "stateMutability": "nonpayable",
      "type": "function"
    },
    {
      "inputs": [],
      "name": "getPatient",
      "outputs": [
        {
          "components": [
            {
              "internalType": "string",
              "name": "name",
              "type": "string"
            },
            {
              "internalType": "string",
              "name": "dob",
              "type": "string"
            },
            {
              "internalType": "string",
              "name": "rId",
              "type": "string"
            }
          ],
          "internalType": "struct PatientContract.Patient",
          "name": "",
          "type": "tuple"
        }
      ],
      "stateMutability": "view",
      "type": "function"
    }
  ],
  "bytecode": "0x608060405234801561001057600080fd5b50610802806100206000396000f3fe608060405234801561001057600080fd5b50600436106100365760003560e01c80632df96ebb1461003b5780637b0f9a3614610057575b600080fd5b610055600480360381019061005091906104f6565b610075565b005b61005f610199565b60405161006c9190610624565b60405180910390f35b61007f60006103a6565b600061008b60006103bc565b9050336002600083815260200190815260200160002060006101000a81548173ffffffffffffffffffffffffffffffffffffffff021916908373ffffffffffffffffffffffffffffffffffffffff160217905550604051806060016040528085815260200184815260200183815250600160003373ffffffffffffffffffffffffffffffffffffffff1673ffffffffffffffffffffffffffffffffffffffff16815260200190815260200160002060008201518160000190805190602001906101559291906103ca565b5060208201518160010190805190602001906101729291906103ca565b50604082015181600201908051906020019061018f9291906103ca565b5090505050505050565b6101a1610450565b600160003373ffffffffffffffffffffffffffffffffffffffff1673ffffffffffffffffffffffffffffffffffffffff1681526020019081526020016000206040518060600160405290816000820180546101fb906106fa565b80601f0160208091040260200160405190810160405280929190818152602001828054610227906106fa565b80156102745780601f1061024957610100808354040283529160200191610274565b820191906000526020600020905b81548152906001019060200180831161025757829003601f168201915b5050505050815260200160018201805461028d906106fa565b80601f01602080910402602001604051908101604052809291908181526020018280546102b9906106fa565b80156103065780601f106102db57610100808354040283529160200191610306565b820191906000526020600020905b8154815290600101906020018083116102e957829003601f168201915b5050505050815260200160028201805461031f906106fa565b80601f016020809104026020016040519081016040528092919081815260200182805461034b906106fa565b80156103985780601f1061036d57610100808354040283529160200191610398565b820191906000526020600020905b81548152906001019060200180831161037b57829003601f168201915b505050505081525050905090565b6001816000016000828254019250508190555050565b600081600001549050919050565b8280546103d6906106fa565b90600052602060002090601f0160209004810192826103f8576000855561043f565b82601f1061041157805160ff191683800117855561043f565b8280016001018555821561043f579182015b8281111561043e578251825591602001919060010190610423565b5b50905061044c9190610471565b5090565b60405180606001604052806060815260200160608152602001606081525090565b5b8082111561048a576000816000905550600101610472565b5090565b60006104a161049c8461066b565b610646565b9050828152602081018484840111156104b957600080fd5b6104c48482856106b8565b509392505050565b600082601f8301126104dd57600080fd5b81356104ed84826020860161048e565b91505092915050565b60008060006060848603121561050b57600080fd5b600084013567ffffffffffffffff81111561052557600080fd5b610531868287016104cc565b935050602084013567ffffffffffffffff81111561054e57600080fd5b61055a868287016104cc565b925050604084013567ffffffffffffffff81111561057757600080fd5b610583868287016104cc565b9150509250925092565b60006105988261069c565b6105a281856106a7565b93506105b28185602086016106c7565b6105bb816107bb565b840191505092915050565b600060608301600083015184820360008601526105e3828261058d565b915050602083015184820360208601526105fd828261058d565b91505060408301518482036040860152610617828261058d565b9150508091505092915050565b6000602082019050818103600083015261063e81846105c6565b905092915050565b6000610650610661565b905061065c828261072c565b919050565b6000604051905090565b600067ffffffffffffffff8211156106865761068561078c565b5b61068f826107bb565b9050602081019050919050565b600081519050919050565b600082825260208201905092915050565b82818337600083830152505050565b60005b838110156106e55780820151818401526020810190506106ca565b838111156106f4576000848401525b50505050565b6000600282049050600182168061071257607f821691505b602082108114156107265761072561075d565b5b50919050565b610735826107bb565b810181811067ffffffffffffffff821117156107545761075361078c565b5b80604052505050565b7f4e487b7100000000000000000000000000000000000000000000000000000000600052602260045260246000fd5b7f4e487b7100000000000000000000000000000000000000000000000000000000600052604160045260246000fd5b6000601f19601f830116905091905056fea2646970667358221220ef7bfad4384b45427f7d9c3095b0dfe7fbba1e49ad5ba544c3056a3f06aaa72364736f6c63430008040033",
  "linkReferences": {},
  "deployedLinkReferences": {}
}